{
  "abi": [
    {
      "inputs": [],
      "stateMutability": "nonpayable",
      "type": "constructor"
    },
    {
      "anonymous": false,
      "inputs": [
        {
          "indexed": false,
          "internalType": "address",
          "name": "module",
          "type": "address"
        }
      ],
      "name": "ModuleCreated",
      "type": "event"
    },
    {
      "inputs": [],
      "name": "createModule",
      "outputs": [
        {
          "internalType": "contract ModuleHub",
          "name": "",
          "type": "address"
        }
      ],
      "stateMutability": "nonpayable",
      "type": "function"
    },
    {
      "inputs": [
        {
          "internalType": "uint256",
          "name": "index",
          "type": "uint256"
        }
      ],
      "name": "getModules",
      "outputs": [
        {
          "internalType": "contract ModuleHub",
          "name": "",
          "type": "address"
        }
      ],
      "stateMutability": "view",
      "type": "function"
    },
    {
      "inputs": [],
      "name": "getModules",
      "outputs": [
        {
          "internalType": "contract ModuleHub[]",
          "name": "",
          "type": "address[]"
        }
      ],
      "stateMutability": "view",
      "type": "function"
    },
    {
      "inputs": [
        {
          "internalType": "uint256",
          "name": "",
          "type": "uint256"
        }
      ],
      "name": "modules",
      "outputs": [
        {
          "internalType": "contract ModuleHub",
          "name": "",
          "type": "address"
        }
      ],
      "stateMutability": "view",
      "type": "function"
    },
    {
      "inputs": [],
      "name": "owner",
      "outputs": [
        {
          "internalType": "address",
          "name": "",
          "type": "address"
        }
      ],
      "stateMutability": "view",
      "type": "function"
    }
  ],
  "bytecode": {
    "object": "0x60a060405234801561001057600080fd5b50336080526080516106c76100366000396000818160a4015261014901526106c76000f3fe608060405234801561001057600080fd5b50600436106100575760003560e01c80635a678c051461005c57806381b2248a1461008c5780638da5cb5b1461009f578063a83477af146100c6578063b2494df3146100ce575b600080fd5b61006f61006a3660046102eb565b6100e3565b6040516001600160a01b0390911681526020015b60405180910390f35b61006f61009a3660046102eb565b610112565b61006f7f000000000000000000000000000000000000000000000000000000000000000081565b61006f61013c565b6100d661027c565b6040516100839190610304565b60008082815481106100f7576100f7610351565b6000918252602090912001546001600160a01b031692915050565b6000818154811061012257600080fd5b6000918252602090912001546001600160a01b0316905081565b6000336001600160a01b037f000000000000000000000000000000000000000000000000000000000000000016146101ba5760405162461bcd60e51b815260206004820152601f60248201527f4d6f64756c654875623a2073656e646572206d757374206265206f776e657200604482015260640160405180910390fd5b6000336040516101c9906102de565b6001600160a01b039091168152602001604051809103906000f0801580156101f5573d6000803e3d6000fd5b50600080546001810182559080527f290decd9548b62a8d60345a988386fc84ba6bc95484008f6362f93160ef3e5630180546001600160a01b0319166001600160a01b0383169081179091556040519081529091507fc9407eb280e4bc747e309b907edd9d46d316e43a480f90ca0484b801047c60079060200160405180910390a1919050565b606060008054806020026020016040519081016040528092919081815260200182805480156102d457602002820191906000526020600020905b81546001600160a01b031681526001909101906020018083116102b6575b5050505050905090565b61032a8061036883390190565b6000602082840312156102fd57600080fd5b5035919050565b6020808252825182820181905260009190848201906040850190845b818110156103455783516001600160a01b031683529284019291840191600101610320565b50909695505050505050565b634e487b7160e01b600052603260045260246000fdfe60a060405234801561001057600080fd5b5060405161032a38038061032a83398101604081905261002f91610040565b6001600160a01b0316608052610070565b60006020828403121561005257600080fd5b81516001600160a01b038116811461006957600080fd5b9392505050565b60805161029a610090600039600081816068015260af015261029a6000f3fe608060405234801561001057600080fd5b50600436106100365760003560e01c8063468721a71461003b5780635dab242014610063575b600080fd5b61004e6100493660046101a8565b6100a2565b60405190151581526020015b60405180910390f35b61008a7f000000000000000000000000000000000000000000000000000000000000000081565b6040516001600160a01b03909116815260200161005a565b6000336001600160a01b037f0000000000000000000000000000000000000000000000000000000000000000161461012a5760405162461bcd60e51b815260206004820152602160248201527f4d6f64756c654875623a2073656e646572206d757374206265206163636f756e6044820152601d60fa1b606482015260840160405180910390fd5b856001600160a01b0316858585604051610145929190610254565b60006040518083038185875af1925050503d8060008114610182576040519150601f19603f3d011682016040523d82523d6000602084013e610187565b606091505b5090979650505050505050565b8035600281106101a357600080fd5b919050565b6000806000806000608086880312156101c057600080fd5b85356001600160a01b03811681146101d757600080fd5b945060208601359350604086013567ffffffffffffffff808211156101fb57600080fd5b818801915088601f83011261020f57600080fd5b81358181111561021e57600080fd5b89602082850101111561023057600080fd5b60208301955080945050505061024860608701610194565b90509295509295909350565b818382376000910190815291905056fea264697066735822122076d6bd4e916051660724df6f5b4ec99cf1fdc9143b139547aa19d4f6e669007a64736f6c63430008140033a26469706673582212204a14a3bdd8082593990b31e6c4114be0985e6d4b3bd859bbe5a4a845133d267064736f6c63430008140033",
    "linkReferences": {}
  },
  "methodIdentifiers": {
    "createModule()": "a83477af",
    "getModules()": "b2494df3",
    "getModules(uint256)": "5a678c05",
    "modules(uint256)": "81b2248a",
    "owner()": "8da5cb5b"
  },
  "id": 16
}