{
  "abi": [
    {
      "anonymous": false,
      "inputs": [
        {
          "indexed": false,
          "internalType": "address",
          "name": "module",
          "type": "address"
        }
      ],
      "name": "ModuleCreated",
      "type": "event"
    },
    {
      "inputs": [
        {
          "internalType": "address",
          "name": "_account",
          "type": "address"
        },
        {
          "internalType": "address",
          "name": "_gnosisSafe",
          "type": "address"
        }
      ],
      "name": "createModule",
      "outputs": [
        {
          "internalType": "contract Module",
          "name": "",
          "type": "address"
        }
      ],
      "stateMutability": "nonpayable",
      "type": "function"
    },
    {
      "inputs": [
        {
          "internalType": "uint256",
          "name": "index",
          "type": "uint256"
        }
      ],
      "name": "getModules",
      "outputs": [
        {
          "internalType": "contract Module",
          "name": "",
          "type": "address"
        }
      ],
      "stateMutability": "view",
      "type": "function"
    },
    {
      "inputs": [],
      "name": "getModules",
      "outputs": [
        {
          "internalType": "contract Module[]",
          "name": "",
          "type": "address[]"
        }
      ],
      "stateMutability": "view",
      "type": "function"
    },
    {
      "inputs": [
        {
          "internalType": "uint256",
          "name": "",
          "type": "uint256"
        }
      ],
      "name": "modules",
      "outputs": [
        {
          "internalType": "contract Module",
          "name": "",
          "type": "address"
        }
      ],
      "stateMutability": "view",
      "type": "function"
    }
  ],
  "bytecode": {
    "object": "0x608060405234801561001057600080fd5b50610999806100206000396000f3fe608060405234801561001057600080fd5b506004361061004c5760003560e01c80635a678c051461005157806381b2248a14610081578063b2494df314610094578063b4b8673a146100a9575b600080fd5b61006461005f366004610251565b6100bc565b6040516001600160a01b0390911681526020015b60405180910390f35b61006461008f366004610251565b6100eb565b61009c610115565b604051610078919061026a565b6100646100b73660046102d3565b610177565b60008082815481106100d0576100d0610306565b6000918252602090912001546001600160a01b031692915050565b600081815481106100fb57600080fd5b6000918252602090912001546001600160a01b0316905081565b6060600080548060200260200160405190810160405280929190818152602001828054801561016d57602002820191906000526020600020905b81546001600160a01b0316815260019091019060200180831161014f575b5050505050905090565b600080838360405161018890610244565b6001600160a01b03928316815291166020820152604001604051809103906000f0801580156101bb573d6000803e3d6000fd5b50600080546001810182559080527f290decd9548b62a8d60345a988386fc84ba6bc95484008f6362f93160ef3e5630180546001600160a01b0319166001600160a01b0383169081179091556040519081529091507fc9407eb280e4bc747e309b907edd9d46d316e43a480f90ca0484b801047c60079060200160405180910390a19392505050565b6106478061031d83390190565b60006020828403121561026357600080fd5b5035919050565b6020808252825182820181905260009190848201906040850190845b818110156102ab5783516001600160a01b031683529284019291840191600101610286565b50909695505050505050565b80356001600160a01b03811681146102ce57600080fd5b919050565b600080604083850312156102e657600080fd5b6102ef836102b7565b91506102fd602084016102b7565b90509250929050565b634e487b7160e01b600052603260045260246000fdfe60c060405234801561001057600080fd5b5060405161064738038061064783398101604081905261002f91610062565b6001600160a01b039182166080521660a052610095565b80516001600160a01b038116811461005d57600080fd5b919050565b6000806040838503121561007557600080fd5b61007e83610046565b915061008c60208401610046565b90509250929050565b60805160a0516105886100bf6000396000818160d0015261015601526000606b01526105886000f3fe608060405234801561001057600080fd5b506004361061004c5760003560e01c806356d5d475146100515780635dab2420146100665780636210326a146100aa578063a84173ae146100cb575b600080fd5b61006461005f366004610258565b6100f2565b005b61008d7f000000000000000000000000000000000000000000000000000000000000000081565b6040516001600160a01b0390911681526020015b60405180910390f35b6000546100b89061ffff1681565b60405161ffff90911681526020016100a1565b61008d7f000000000000000000000000000000000000000000000000000000000000000081565b7fbb8068a80970e39c505e930e385376bf8649fce97bd3eb8f4c4dfffc5e9b8033848460601c848460405161012a94939291906102ea565b60405180910390a16000808080808080610146888a018a6103f6565b96509650965096509650965096507f00000000000000000000000000000000000000000000000000000000000000006001600160a01b031663468721a7878785858a6040516024016101b9939291906001600160a01b039384168152919092166020820152604081019190915260600190565b60408051601f198184030181529181526020820180516001600160e01b03166323b872dd60e01b1790525160e085901b6001600160e01b03191681526102079392919060009060040161049f565b6020604051808303816000875af1158015610226573d6000803e3d6000fd5b505050506040513d601f19601f8201168201806040525081019061024a9190610529565b505050505050505050505050565b6000806000806060858703121561026e57600080fd5b843563ffffffff8116811461028257600080fd5b935060208501359250604085013567ffffffffffffffff808211156102a657600080fd5b818701915087601f8301126102ba57600080fd5b8135818111156102c957600080fd5b8860208285010111156102db57600080fd5b95989497505060200194505050565b63ffffffff851681526001600160a01b03841660208201526060604082018190528101829052818360808301376000818301608090810191909152601f909201601f191601019392505050565b80356001600160a01b038116811461034e57600080fd5b919050565b634e487b7160e01b600052604160045260246000fd5b600082601f83011261037a57600080fd5b813567ffffffffffffffff8082111561039557610395610353565b604051601f8301601f19908116603f011681019082821181831017156103bd576103bd610353565b816040528381528660208588010111156103d657600080fd5b836020870160208301376000602085830101528094505050505092915050565b600080600080600080600060e0888a03121561041157600080fd5b8735965061042160208901610337565b955060408801359450606088013567ffffffffffffffff8082111561044557600080fd5b6104518b838c01610369565b955060808a013591508082111561046757600080fd5b506104748a828b01610369565b93505061048360a08901610337565b915061049160c08901610337565b905092959891949750929550565b60018060a01b038516815260006020858184015260806040840152845180608085015260005b818110156104e15786810183015185820160a0015282016104c5565b50600060a0828601015260a0601f19601f830116850101925050506002831061051a57634e487b7160e01b600052602160045260246000fd5b82606083015295945050505050565b60006020828403121561053b57600080fd5b8151801515811461054b57600080fd5b939250505056fea26469706673582212207bec8dc741c7075bbd1197545becb502704cdb5b18eec8356255a1ff86c4fa2364736f6c63430008140033a26469706673582212203c105582da480b34533e5a2bddd9d10d76c13356c3760ba9197441935d0c847664736f6c63430008140033",
    "linkReferences": {}
  },
  "methodIdentifiers": {
    "createModule(address,address)": "b4b8673a",
    "getModules()": "b2494df3",
    "getModules(uint256)": "5a678c05",
    "modules(uint256)": "81b2248a"
  },
  "id": 17
}