{
  "abi": [
    {
      "inputs": [
        {
          "internalType": "address",
          "name": "_deployer",
          "type": "address"
        }
      ],
      "stateMutability": "nonpayable",
      "type": "constructor"
    },
    {
      "inputs": [],
      "name": "account",
      "outputs": [
        {
          "internalType": "address",
          "name": "",
          "type": "address"
        }
      ],
      "stateMutability": "view",
      "type": "function"
    },
    {
      "inputs": [
        {
          "internalType": "address",
          "name": "_to",
          "type": "address"
        },
        {
          "internalType": "uint256",
          "name": "_value",
          "type": "uint256"
        },
        {
          "internalType": "bytes",
          "name": "_data",
          "type": "bytes"
        },
        {
          "internalType": "enum Enum.Operation",
          "name": "_operation",
          "type": "uint8"
        }
      ],
      "name": "execTransactionFromModule",
      "outputs": [
        {
          "internalType": "bool",
          "name": "success",
          "type": "bool"
        }
      ],
      "stateMutability": "nonpayable",
      "type": "function"
    }
  ],
  "bytecode": {
    "object": "0x60a060405234801561001057600080fd5b5060405161032a38038061032a83398101604081905261002f91610040565b6001600160a01b0316608052610070565b60006020828403121561005257600080fd5b81516001600160a01b038116811461006957600080fd5b9392505050565b60805161029a610090600039600081816068015260af015261029a6000f3fe608060405234801561001057600080fd5b50600436106100365760003560e01c8063468721a71461003b5780635dab242014610063575b600080fd5b61004e6100493660046101a8565b6100a2565b60405190151581526020015b60405180910390f35b61008a7f000000000000000000000000000000000000000000000000000000000000000081565b6040516001600160a01b03909116815260200161005a565b6000336001600160a01b037f0000000000000000000000000000000000000000000000000000000000000000161461012a5760405162461bcd60e51b815260206004820152602160248201527f4d6f64756c654875623a2073656e646572206d757374206265206163636f756e6044820152601d60fa1b606482015260840160405180910390fd5b856001600160a01b0316858585604051610145929190610254565b60006040518083038185875af1925050503d8060008114610182576040519150601f19603f3d011682016040523d82523d6000602084013e610187565b606091505b5090979650505050505050565b8035600281106101a357600080fd5b919050565b6000806000806000608086880312156101c057600080fd5b85356001600160a01b03811681146101d757600080fd5b945060208601359350604086013567ffffffffffffffff808211156101fb57600080fd5b818801915088601f83011261020f57600080fd5b81358181111561021e57600080fd5b89602082850101111561023057600080fd5b60208301955080945050505061024860608701610194565b90509295509295909350565b818382376000910190815291905056fea264697066735822122076d6bd4e916051660724df6f5b4ec99cf1fdc9143b139547aa19d4f6e669007a64736f6c63430008140033",
    "linkReferences": {}
  },
  "methodIdentifiers": {
    "account()": "5dab2420",
    "execTransactionFromModule(address,uint256,bytes,uint8)": "468721a7"
  },
  "id": 54
}